:020000040800F2
:100000006007002091010008990100089B01000889
:100010009D0100089F010008A101000800000000E8
:10002000000000000000000000000000A301000824
:10003000A501000800000000A7010008A9010008B0
:10004000AB010008AB010008AB010008AB010008E0
:10005000AB010008AB010008AB010008AB010008D0
:10006000AB010008AB010008AB010008AB010008C0
:10007000AB010008AB010008AB010008AB010008B0
:10008000AB010008AB010008AB010008AB010008A0
:10009000AB010008AB010008AB010008AB01000890
:1000A000AB010008AB010008AB010008AB01000880
:1000B000AB010008AB010008AB010008AB01000870
:1000C000AB010008AB010008AB010008AB01000860
:1000D000AB010008B1130008AB010008AB01000838
:1000E000AB010008AB010008AB01000800F002F80A
:1000F00000F03FF80AA090E8000C82448344AAF183
:100100000107DA4501D100F034F8AFF2090EBAE880
:100110000F0013F0010F18BFFB1A43F0010318473B
:10012000A8160000C8160000103A24BF78C878C18D
:10013000FAD8520724BF30C830C144BF04680C60ED
:10014000704700000023002400250026103A28BF35
:1001500078C1FBD8520728BF30C148BF0B60704739
:10016000642900F04380002070471FB51FBD10B503
:1001700010BD00F05FF91146FFF7F7FF01F082FABA
:1001800000F07DF903B4FFF7F2FF03BC01F021FAA0
:100190000948804709480047FEE7FEE7FEE7FEE71B
:1001A000FEE7FEE7FEE7FEE7FEE7FEE70448054957
:1001B000054A064B70470000290E0008ED000008B4
:1001C0006001002060070020600300206003002021
:1001D000704700000FB4044910B503AA029800F05C
:1001E000FBF810BC5DF814FB2C0000202DE9F04159
:1001F0000646002410687529314616A510D0AFF3C5
:100200000080002802DA404213A507E031688A071F
:1002100001D512A502E0490704D511A5012401E08A
:10022000AFF3008000210A2206F1240709E0B0FBA9
:10023000F2FCB0FBF2F302FB1C003030785418469D
:10024000491C0028F3D123462A463046BDE8F04138
:1002500000F068B8000000002D0000002B00000036
:10026000200000002DE9F0410F46054600202862DD
:100270002846E968884770B3252805D0D5E90121CB
:100280009047286A401CF2E7E9682846002688471C
:100290006C2804460AD0682C08D04C2C35D06A2C27
:1002A00031D0742C31D07A2C2FD016E0E968064674
:1002B00028468847B042044608D16C2E23D04FF41C
:1002C00080662846E9688847044606E06C2E03D01D
:1002D0004FF4807601E01EE04026E4B1A4F1410035
:1002E000192802D8203446F400663A4621462846AA
:1002F0002E60FFF735FF60B1012808D0FF1D27F001
:1003000007070837B4E78026DBE70026D9E73F1D5B
:10031000AEE72046B2E7286ABDE8F0817047704733
:10032000704770472DE9F0470D46994692460446BE
:1003300000F124080168880604D5E06921F0100165
:10034000216000E00120A84201DD471B00E00027FA
:10035000A1697A1902EB0900081AA0612078C00689
:1003600002D42046AFF30080002608E0D4E9012142
:100370001AF806009047206A401C761C20624E4501
:10038000F4DB2078C0060AD52046AFF3008006E0F3
:10039000D4E9012130209047206A401C2062381E99
:1003A000A7F10107F4DC07E0D4E9012118F8050002
:1003B0009047206A401C2062281EA5F10105F3DC4D
:1003C0002046AFF300802078000602D50220BDE869
:1003D000F0870120FBE70000074B70B50D467B441A
:1003E00000F011F80446284600F020F810B14FF054
:1003F000FF3070BD204670BD8712000001694A1CA5
:1004000002610878704700B58FB0CDE90131002155
:10041000059105497944CDE9031011466846FFF777
:1004200021FF0FB000BD0000E5FFFFFF007B00F0E3
:1004300080007047754600F02BF8AE46050069460F
:10044000534620F00700854618B020B5FFF7AEFEF2
:10045000BDE820404FF000064FF000074FF00008C5
:100460004FF0000B21F00701AC46ACE8C009ACE846
:10047000C009ACE8C009ACE8C0098D46704710B5AA
:100480000446AFF300802046BDE81040FFF77ABE77
:10049000004870470001002021B1826842F001024B
:1004A000826003E0826822F00102826070470000EF
:1004B00010B504461248844208D10121401500F0CD
:1004C000B1FB0021601500F0ADFB17E00D48844240
:1004D00008D10121001500F0A5FB0021201500F036
:1004E000A1FB0BE00848844208D10121C80300F0B9
:1004F00099FB00214FF4004000F094FB10BD000078
:100500000024014000280140003C01400146002039
:100510008A6802F004020AB1012000E0002070475E
:10052000014600208A6802F008020AB1012000E0BA
:100530000020704730B502460020002350680F4C61
:1005400020400D790C6844EA0524204350609068EF
:100550000B4C2040D1E902542C434D7944EA450428
:1005600020439060D06A20F470000C7C641EE4B2DA
:10057000234340EA0350D06230BD0000FFFEF0FF8D
:10058000FDF7F1FFF0B504460D4600200021092DCE
:1005900011DDE068A5F10A0606EB4607072606FA14
:1005A00007F18843A5F10A0606EB460603FA06F1B1
:1005B0000843E0600CE0206905EB4507072606FAD2
:1005C00007F1884305EB450603FA06F1084320616D
:1005D000072A0FDA606B561E06EB86071F2606FAFF
:1005E00007F18843561E06EB860605FA06F1084316
:1005F000606322E00D2A0FDA206BD61F06EB860718
:100600001F2606FA07F18843D61F06EB860605FA71
:1006100006F10843206310E0E06AA2F10D0606EB44
:1006200086071F2606FA07F18843A2F10D0606EB9E
:10063000860605FA06F10843E062F0BD816841F0E4
:10064000080181607047816841F004018160704752
:1006500000B585B00121480200F0D4FA4FF4004003
:1006600000F0B4FA1948FFF723FF002000908DF83E
:1006700004008DF805004FF46020029000200390E4
:1006800001208DF8100069461048FFF753FF06233C
:10069000012219460D48FFF775FF01210B48FFF7AE
:1006A000FBFE0A48FFF7CAFF00BF0848FFF738FF04
:1006B0000028FAD10548FFF7C6FF00BF0348FFF73F
:1006C00025FF0028FAD105B000BD0000002401403C
:1006D00008B501210C2000F095FA10208DF80300D8
:1006E00003208DF802008003ADF800006946184829
:1006F00000F089F80220ADF8000018208DF8030002
:100700006946134800F07FF81C20ADF8000048202F
:100710008DF8030069460F4800F075F8C020ADF869
:10072000000004208DF803006946094800F06BF8CA
:100730004020ADF8000000208DF803006946054810
:1007400000F061F84FF44041014800F0EBF808BDBB
:10075000000C01400008014010B50121042000F008
:1007600041FA024800F018F810BD000000080040EF
:1007700070B50446204600F0E0FC05B2002120469A
:1007800000F096FD284670BD10B50248FFF7F0FF57
:1007900010BD00000008004010B586B004460020DF
:1007A000ADF80C004FF6FF70ADF810000020ADF86A
:1007B0001200ADF80E0003A9204600F0A7FD0023AB
:1007C0001A460321204600F097FC684600F00EFD13
:1007D0000620ADF808000020ADF80000694620466C
:1007E00000F0AEFC0420ADF800006946204600F0A1
:1007F000A7FC0021204600F05BFD0121204600F00F
:100800006FFC06B010BD2DE9F04102460025002620
:10081000002000230024002791F803C00CF00F05EE
:1008200091F803C00CF0100CBCF1000F03D091F84C
:1008300002C04CEA050591F800C0BCF1000F31D0B0
:10084000146800202BE04FF0010C0CFA00F3B1F813
:1008500000C00CEA03069E4220D183004FF00F0C2B
:100860000CFA03F7BC4305FA03FC4CEA040491F8C4
:1008700003C0BCF1280F06D14FF0010C0CFA00FCAC
:10088000C2F814C00AE091F803C0BCF1480F05D1CA
:100890004FF0010C0CFA00FCC2F810C0401C0828F4
:1008A000D1D31460B1F800C0BCF1FF0F34DD54683F
:1008B00000202EE000F1080C4FF0010808FA0CF3BC
:1008C000B1F800C00CEA03069E4221D183004FF02C
:1008D0000F0C0CFA03F7BC4305FA03FC4CEA0404C2
:1008E00091F803C0BCF1280F05D100F1080C08FAFB
:1008F0000CF8C2F8148091F803C0BCF1480F07D17E
:1009000000F1080C4FF0010808FA0CF8C2F810804A
:10091000401C0828CED35460BDE8F08101468868A9
:1009200080B27047416170470161704770B50546FC
:1009300015B10120174908701748FFF7EFFF04466B
:100940001448007801281CD104F01C001C2818D081
:100950000A2000F063FE1048FFF7E0FF0446002085
:100960000C49087004F0040008B9012070BD04F0BF
:10097000080008B90220F9E704F0100040B903208C
:10098000F4E704F01C001C2802D101200149087082
:100990000020EBE7320000200008014010B50B48B2
:1009A000007800F01BF804462146094800F07DFC61
:1009B0000648007828B94FF440410648FFF7B2FFD7
:1009C00003E00548007800F093F810BD33000020E4
:1009D00000040040000C01403400002001460129C1
:1009E00001D1C8207047022902D14FF4C870F9E73D
:1009F000032902D14FF42F70F4E70020F2E7000042
:100A000000B587B00121022000F0ECF84720ADF8D6
:100A1000100040F2E730ADF814000020ADF81600E9
:100A2000ADF8120004A9154800F070FC684600F00B
:100A300032FC6020ADF800000120ADF8020000207B
:100A4000ADF80800ADF8060069460C4800F0D8FB88
:100A500008210A4800F012FC0121084800F034FB8C
:100A60000121064800F03CFB0020054908700549BB
:100A70000870FFF793FF07B000BD000000040040BE
:100A8000330000203400002070B50446FFF77CFEE0
:100A900005462068284420604FF47A70684364213A
:100AA00090FBF1F6324602A02168FFF793FB70BD80
:100AB0004D6F746F72204120506F733D256C642020
:100AC00053706565643D256C6420636F756E742F8B
:100AD000730D0A0010B504460CB1012000E000209F
:100AE00002490870FFF75AFF10BD000034000020D3
:100AF00010B5044654B94FF480410A48FFF714FF7B
:100B00004FF400410748FFF70DFF09E04FF4804123
:100B10000448FFF707FF4FF400410248FFF704FFC6
:100B200010BD0000000C014010B5044605480470DB
:100B30000078032802D9002002490870FFF72EFF31
:100B400010BD00003300002070B5002100230F22EB
:100B5000C47804B3154C246804F4E064C4F5E0647C
:100B6000210AC1F10403CA40447804FA03F18478ED
:100B70001440214309010E4C0678A155047804F075
:100B80001F050124AC4005786D11AD0005F1E0258D
:100B9000C5F8004109E0047804F01F050124AC40C9
:100BA000044D0678761145F8264070BD0CED00E046
:100BB00000E400E080E100E002490143024A1160E4
:100BC000704700000000FA050CED00E0014600202F
:100BD000034A506820F440400843506070470000CA
:100BE0000010024029B1064AD2690243044BDA617F
:100BF00004E0034AD2698243014BDA617047000086
:100C00000010024029B1064A92690243044B9A61DE
:100C100004E0034A92698243014B9A6170470000E5
:100C20000010024029B1064AD2680243044BDA6040
:100C300004E0034AD2688243014BDA607047000047
:100C40000010024030B500210022002400232D4D69
:100C50006D6805F00C0121B1042905D0082923D1C4
:100C600005E0294D056022E0274D05601FE0254D78
:100C70006D6805F47012234D6D6805F4803402250B
:100C800005EB92421CB9214D554305600BE01D4D0B
:100C90006D6805F400351DB11C4D5543056002E03B
:100CA000194D5543056002E0174D056000BF00BFB8
:100CB000144D6D6805F0F0010909154D6B5C056870
:100CC000DD4045600F4D6D6805F4E061090A104D87
:100CD0006B5C4568DD4085600A4D6D6805F46051C8
:100CE000C90A0B4D6B5C4568DD40C560054D6D68FC
:100CF00005F44041890B074D6B5CC568B5FBF3F506
:100D0000056130BD0010024000127A0000093D006C
:100D1000140000202400002010B500F001F810BDE0
:100D20000CB50020019000903348006840F48030FA
:100D30003149086000BF3048006800F4003000907E
:100D40000198401C0190009818B90198B0F5A06F67
:100D5000F1D12948006800F4003010B10120009062
:100D600001E0002000900098012843D1234800684A
:100D700040F01000214908600846006820F0030098
:100D800008600846006840F0020008601A484068A1
:100D9000194948600846406848600846406840F481
:100DA000806048600846406820F47C10486008462F
:100DB000406840F4E81048600846006840F08070E1
:100DC000086000BF0C48006800F000700028F9D0EF
:100DD0000948406820F00300074948600846406819
:100DE00040F00200486000BF0348406800F00C007B
:100DF0000828F9D10CBD000000100240002002407C
:100E0000042808D14FF0E021096941F004014FF0B6
:100E1000E022116107E04FF0E021096921F00401AF
:100E20004FF0E0221161704710B51348006840F0A0
:100E300001001149086008464068104908400E4901
:100E40004860084600680E4908400B49086008469B
:100E5000006820F4802008600846406820F4FE0006
:100E600048604FF41F008860FFF756FF4FF00060A6
:100E70000449086010BD0000001002400000FFF8A7
:100E8000FFFFF6FE08ED00E0F0B50C461546002227
:100E90000021068C4FF6FE773E400684028B018CC3
:100EA0004FF60C7632407E1C06EA03162E43324380
:100EB000104EB0420ED0104EB0420BD0B0F1804F69
:100EC00008D00E4EB04205D00D4EB04202D00D4EAD
:100ED000B04206D14FF6FD76314044F00106314371
:100EE00005E04FF6F576314044F0010631430283C8
:100EF0000184F0BD002C014000340140000400409A
:100F000000080040000C0040F0B50C4615460022D9
:100F100000210026078C4FF6EF7C07EA0C070784B8
:100F2000028B018C4FF6FF7707EA041640F6FF4765
:100F30003A404FF6FF7707EA03373A434FF6FF7719
:100F400007EA05273A43114FB8420ED0104FB84276
:100F50000BD0B0F1804F08D00E4FB84205D00E4FE5
:100F6000B84202D00D4FB84206D14FF6DF77394074
:100F700046F01007394305E04FF65F77394044F0FB
:100F80001007394302830184F0BD0000002C0140AA
:100F9000003401400004004000080040000C004004
:100FA000F0B50C461546002200210026078C4FF6AE
:100FB000FF6C07EA0C070784828B018C4FF6FF77E2
:100FC00007EA04264FF60C773A404FF6FF7707EA18
:100FD00003172F433A43114FB8420ED0104FB84277
:100FE0000BD0B0F1804F08D00E4FB84205D00E4F55
:100FF000B84202D00D4FB84206D14FF6FF573940E4
:1010000046F48077394305E04FF2FF57394044F406
:101010008077394382830184F0BD0000002C0140B9
:10102000003401400004004000080040000C004073
:10103000F0B50C461546002200210026078C4EF61E
:10104000FF7C07EA0C070784828B018C4FF6FF7741
:1010500007EA043640F6FF473A404FF6FF7707EAC3
:1010600005273A434FF6FF7707EA03373A43114F14
:10107000B8420ED0104FB8420BD0B0F1804F08D01C
:101080000E4FB84205D00E4FB84202D00D4FB842B5
:1010900006D14DF6FF77394046F48057394305E0D5
:1010A00047F6FF57394044F480573943828301841F
:1010B000F0BD0000002C014000340140000400405D
:1010C00000080040000C004021B1028842F080027C
:1010D000028004E002884FF67F731A400280704756
:1010E00021B1028842F00102028004E002884FF63A
:1010F000FE731A4002807047F0B50C4615461E4636
:101100000021002200230189028B038C4FF6F8771F
:10111000394021434FF6FC473A4040F201173A4329
:101120004FF6DD773B404FF6FF7707EA06172F4370
:101130003B43018102830384F0BD0146888C7047E4
:1011400070B505460C46244885420ED0234885429A
:101150000BD0B5F1804F08D02148854205D02148F9
:10116000854202D02048854200D100E000BF20889F
:1011700050B92389A28861882846FFF785FEE18857
:10118000284600F097F825E0208804280AD1238912
:10119000A28861882846FFF7B7FEE188284600F05C
:1011A00092F817E0208808280AD12389A28861884C
:1011B0002846FFF7F5FEE188284600F091F809E09F
:1011C0002389A28861882846FFF732FFE1882846F4
:1011D00000F08FF870BD0000002C01400034014089
:1011E0000004004000080040000C00400021018085
:1011F0004180012181800021C18001817047000070
:1012000070B5002200230024058C4EF6FF76354091
:101210000584038C8488828B48F6FF752A404FF63C
:10122000FF452A400D884FF6FF7606EA05252A433A
:101230004DF6FF752B400D8906EA05352B434D8889
:1012400006EA05352B430B4DA84202D00A4DA842B1
:1012500008D14BF6FF752C408D894FF6FF7606EAD4
:1012600085152C4384808283CD88A0F84050038468
:1012700070BD0000002C0140003401400A460021EE
:10128000818B4FF2FF7319404FF6FF7303EA02237D
:101290001943818370470021018041808180C18092
:1012A000018141818181C1817047A0F84010704760
:1012B00081847047028B4FF6F3731A400283028BCE
:1012C0000A4302837047028B4FF2FF331A400283B6
:1012D000028B4FF6FF7303EA01231A430283704720
:1012E000828B4FF6F3731A408283828B0A43828388
:1012F0007047828B4FF2FF331A408283828B4FF606
:10130000FF7303EA01231A43828370470022028895
:101310001D4B98420ED01D4B98420BD0B0F1804F20
:1013200008D01B4B984205D01A4B984202D01A4B5A
:10133000984204D14FF68F731A404B881A43174BCB
:10134000984207D0164B984204D04FF6FF431A40FC
:10135000CB881A4302808B8883850B8803850A4BD0
:1013600098420BD0094B984208D00E4B984205D0BA
:101370000D4B984202D00D4B984201D10B7A038657
:101380000123838270470000002C0140003401409B
:101390000004004000080040000C00400010004025
:1013A000001400400040014000440140004801405A
:1013B00010B540F225511D4800F04AF810B31B4803
:1013C00000F002F9C4B21A48008800F40040C8B91D
:1013D0001748008800F4804060B10A2C03D0002038
:1013E0001349088020E01248008840F4004010496A
:1013F000088019E00D2C06D10D48008840F480408B
:101400000B49088010E00A480088C0F30D00094924
:101410000C5407480088401C05490880084600888D
:10142000C72801DD0020088010BD00000038014001
:10143000300000203800002021B1828942F400529F
:10144000828104E082894DF6FF731A4082817047E1
:1014500070B50246002400230025002040F66A16DD
:10146000B14200D100BFC1F3421501F01F030126B4
:1014700006FA03F3012D02D19689334006E0022DCE
:1014800002D1168A334001E0968A33400C120126BD
:1014900006FA04F41688344013B10CB1012000E0C0
:1014A000002070BDF0B50346002400260025002072
:1014B00040F66A17B94200D100BF1846C1F3421482
:1014C00001F01F06012707FA06F5012C01D10C30A7
:1014D00004E0022C01D1103000E014301AB107688A
:1014E0002F43076002E00768AF430760F0BD0000CC
:1014F0002DE9F04786B005460E460024A24600BFFF
:10150000A1460027B08900B100BF2F462C8A4CF6B7
:10151000FF700440F08804432C82AC894EF6F3102F
:101520000440B08831890843718908430443AC8181
:10153000AC8A4FF6FF400440B0890443AC8201A856
:10154000FFF780FB1F48874202D1DDF810A001E0C1
:10155000DDF80CA0A88900F4004040B10AEBCA00F5
:1015600000EB0A1031684900B0FBF1F807E00AEB24
:10157000CA0000EB0A1031688900B0FBF1F8642062
:10158000B8FBF0F004012009642101FB1089A8894F
:1015900000F4004040B1322000EBC900B0FBF1F094
:1015A00000F00700044308E0322000EB091064213A
:1015B000B0FBF1F000F00F0004432C8106B0BDE851
:1015C000F08700000038014001468888C0F3080019
:1015D000704700BF7047000010B56FF00400FFF7C0
:1015E0000FFC0A4800680A49B0FBF1F0094908708D
:1015F0000846007800EB4001C1EBC0104FF6FF71C8
:1016000001EAC0000449088010BD0000000000206D
:1016100000127A00280000202A0000200146114A0A
:1016200012884A434FF0E0235A6100229A611A4619
:10163000126942F001021A6100BF4FF0E022106906
:1016400000F001021AB100F48032002AF5D04FF008
:10165000E022126922F001024FF0E0231A61002219
:101660009A6170472A00002000BF054A128802F0E4
:101670004002002AF9D0C2B2014B1B1D1A807047EC
:101680000038014008B50025002600200090FFF733
:10169000CBFB4FF4A060FFF78FFAFFF79DFFFFF73A
:1016A00017F8FFF7ADF93046FFF714FA2846FFF7B1
:1016B0003BFAFFF751F8FEF7CBFF4FF4E13000F0B3
:1016C00033F813A0FEF786FD21E00020FFF72EF986
:1016D0000446012C08D1681CC5B2032D00D9002591
:1016E0002846FFF721FA0CE0022C04D100263046F0
:1016F000FFF7F0F905E0032C03D101263046FFF790
:10170000E9F96846FFF7C0F96420FFF787FFDCE7D7
:101710004D6F746F72206D6F6E69746F7220726599
:101720006164790D0A00000010B586B004460121FD
:1017300044F20400FFF766FA4FF40070ADF81400AD
:1017400003208DF8160018208DF8170005A91C48F5
:10175000FFF759F84FF48060ADF8140004208DF8BD
:10176000170005A91648FFF74EF825208DF8000050
:1017700003208DF801008DF8020001208DF8030090
:101780006846FFF7E1F901940020ADF80800ADF8D4
:101790000A00ADF80C00ADF810000C20ADF80E00FA
:1017A00001A90848FFF7A4FE012240F2255105488F
:1017B000FFF778FE01210348FFF73EFE06B010BD9B
:1017C0000008014000380140E81700080000002030
:1017D0003800000028010008201800083800002008
:1017E000280700004401000800A24A04000000008D
:1017F00000000000010203040607080900000000C1
:101800000102030401020304060708090204060892
:1018100000000000000000000000010000000000C7
:04000005080000ED02
:00000001FF
