:10066A005389F0438901758CFF758A38C28DD2A9E6
:05067A00D2AFD28C227A
:03000B0002043DAF
:10043D00C0E0C0F0C083C082C0D075D000C000C085
:10044D0001C002C003C004C005C006C007C28D753F
:10045D008CFF758A381204C9120483D007D006D0D8
:10046D0005D004D003D002D001D000D0D0D082D09E
:06047D0083D0F0D0E03254
:10024A00E4F510F511F5121207471206941206E2A8
:10025A001206C71200AEAF121206EEAF111206A8AE
:10026A0012066AE4FF1203F18F10E5106401702F81
:10027A000511E511D394034003E4F511AF111206F9
:10028A00A8E511B403047F0180027F001205DAE5B4
:10029A0011B403047F0180027F001207068017E56C
:1002AA0010B40205E4F5128008E510B403087512CB
:0B02BA0001AF121206EE12055480A8DE
:0D04FF00011A00011B0002180000011C0082
:0E06C700C2A5E4F51AF51BF518F519F51C226D
:1005DA00EF60047F0180027F008F1AE51A700AC259
:0A05EA00A5F51BF518F519F51C2204
:10048300E51A7003C2A5220519E51970020518C300
:10049300E51994C4E51894094014E4F518F519E531
:1004A3001C70047F0180027F008F1CE4F51B051B79
:1004B300E51C60047F0780027F04E51BC39F4005A2
:0604C300E4F51BB2A522C6
:03050C00012801C2
:0B071200EF1FAC0670011E4C70F622B9
:1003F100EF6003752801E5286401702E30B10930E2
:10040100B00630B20320B3227FE87E03120712E464
:10041100F52820B1037F012220B0037F022220B200
:10042100037F032220B3127F042230B10C30B009C4
:0B04310030B20630B3037528017F00D5
:01043C00229D
:03074700D2A0221B
:03074A00B2A02238
:09050F00011F00011D00011E0086
:10067F00BF01037F0222BF02037F0422BF03037F58
:05068F0007227F00229C
:0C06E200C290C291E4F51FF51DF51E2228
:1006A8008F1FE51FD394034003E4F51FE4F51E22D2
:0C06EE00EF60047F0180027F008F1D225E
:1004C900AF1F12067FEF7005C290C29122051EE58B
:1004D9001EC3940A4003E4F51EE51EC39F50028023
:1004E90001C39200E51D7007A2009290C29122C239
:0504F90090A2009291A9
:0104FE0022DB
:10000E0008188C06AC00AA00AB1EAB20AA21AA23AE
:10001E00AA26AE20AA20A830A81CF803000C0018AF
:10002E0000001A2632230231FF1FA20132031232C0
:10003E0070107C18870F0406840F7C18043004009F
:10004E0010001010F10F020810041500D51F5505F1
:10005E0055055F05551555155515D51F1100000091
:10006E0020302118E20F0412C0217F20D12F5124FD
:10007E005124DF2F2A203221E32F32212A2122215F
:10008E00200020002120E31F06100008002400207D
:10009E000020FF3F102010201020102010200020E4
:0A0518000123000124000221007FEE
:06000300E4FF0FBF02FC48
:0100090022D4
:10060E00E4FDFCC3ED9FEC9E500DE4FB0BBB78FCB0
:07061E000DBD00010C80EC92
:0106250022B2
:0F06B800D293D292120003C293120003C2922275
:0A073300C293D292120003D2932267
:02052D00AE0717
:10052F00E4FDEE30E703D38001C39293D292120021
:10053F0003C292EE25E0FE0DBD08E7D293D29212D0
:04054F000003C29251
:010553002285
:0505BE001205C3E4FF7B
:1005C300AC071206B87F7812052DE4FF12052DAF94
:0705D3000412052D0207339D
:0D06D5001206B87F7812052D7F4002052D1A
:03074D000207336D
:1005F400AB05EF24B0FF1205C3EB540FFF1205C384
:0A060400EBC4540F2410FF0205C3DD
:10063E00E4FD1205F41206D5E4FCE4FF12052D0CC0
:06064E00BC80F702074D1D
:0B06FA00E4FAAF0212063E0ABA08F74D
:0107050022D1
:05073D007FAF0205C3BF
:050742007FAE0205C3BB
:060399008D16AB07AA0659
:10039F00C3EB945AEA940040037F00227C007D1245
:1003AF00AF03AE021201F58F17AE02AF037C007DD3
:1003BF00121201F5AF05EFC3941040037F0022EF37
:1003CF0025E02516FFE517C43354E0240EF582E42B
:1003DF003400F583E5822FF582E43583F583E493CA
:0103EF00FF0E
:0103F00022EA
:10057A007F201205C37F011205C37F211205BE7FAA
:10058A007F1205C37F221205C37F031205C37F04AE
:03059A000205C394
:1002C50012057A1206D5E4F9E9C39522F515E495E8
:1002D50021F514C364809480400CE515945AE51407
:1002E500648094804006E4F513FB8016AE14AF15C8
:1002F500E4FD1203998F13AE14AF157D0112039916
:10030500AB07AF1312052DAF0312052D09B980B840
:1003150012074DE522152270021521D3E52294A678
:0E032500E5216480947F500675210075227FCB
:0103330022A7
:1000AE00D292D2937F647E0012060E7FAE1205C3EB
:1000BE007F201205C37F021205C37FB01205C37FD6
:1000CE00C81205BE7F101205C37F401205C37F8183
:1000DE001205C37F7F1205C37FA11205C37FA6122F
:1000EE0005C37FA81205C37F3F1205C37FA4120567
:1000FE00C37FD31205BE7FD51205C37F801205C301
:10010E007FD91205C37FF11205C37FDA1205C37FB3
:10011E00121205C37FDB1205C37F401205C37F8D0C
:0E012E001205C37F141205C31206FA0207421F
:0C070600EF60047F0180027F008F23223F
:10055400E5236524601885232475210075227FE531
:1005640023600812073D1202C58003120742E523E7
:0605740060031202C52223
:0B0728003F065B4F666D7D077F6F0092
:0A05220008080A0A0A0A0A0A0A0A6F
:0B071D00EF1FAC0670011E4C70F622AE
:100694007F087808740AF608DFFCD2A4D2A3D2A299
:0306A400E4F580FA
:0106A7002230
:10062600EFC394085011ED940A5004AE0580027E83
:080636000A74082FF8A6062241
:06059D008B258A26892748
:1005A300E4FCAF04AB25AA26A9278C82758300122D
:0A05B30001C8FD1206260CBC08E882
:0105BD00221B
:10033400EFC39408505EEFB40800504D900347F8A3
:1003440028287302035F02036302036702036B023C
:10035400036F02037702037F020387D2A4800ED2C5
:10036400A48012D2A48016D2A4801AC2A4D2A3D28A
:10037400A28016C2A4D2A3C2A2800EC2A4C2A3D2D7
:10038400A28006C2A4C2A3C2A274082FF8E69007F2
:050394002893F5802212
:10065400E4FDAF051203347F647E0012071DE4F548
:05066400800DBD08ED52
:01066900226E
:0300000002013CBE
:0C013C00787FE4F6D8FD7581280201836D
:1001C800BB010CE58229F582E5833AF583E02250EC
:1001D80006E92582F8E622BBFE06E92582F8E22236
:0D01E800E58229F582E5833AF583E4932250
:1001F500BC000BBE0029EF8DF084FFADF022E4CCEE
:10020500F875F008EF2FFFEE33FEEC33FCEE9DECB6
:10021500984005FCEE9DFE0FD5F0E9E4CEFD22EDFC
:10022500F8F5F0EE8420D21CFEADF075F008EF2F46
:10023500FFED33FD4007985006D5F0F222C398FD37
:050245000FD5F0EA22D4
:1001480002024AE493A3F8E493A34003F68001F281
:1001580008DFF48029E493A3F85407240CC8C333B8
:10016800C4540F4420C8834004F456800146F6DF87
:10017800E4800B01020408102040809004FFE47E14
:10018800019360BCA3FF543F30E509541FFEE4937C
:10019800A360010ECF54C025E060A840B8E493A343
:1001A800FAE493A3F8E493A3C8C582C8CAC583CA6E
:1001B800F0A3C8C582C8CAC583CADFE9DEE780BE26
:01052C0000CE
:00000001FF
