:100333005389F0438901758CFF758A38C28DD2A920
:05034300D2AFD28C22B4
:03000B000201B738
:1001B700C0E0C0F0C083C082C0D075D000C000C00E
:1001C70001C002C003C004C005C006C007C28D75C8
:1001D7008CFF758A381202431201FDD007D006D072
:1001E70005D004D003D002D001D000D0D0D082D027
:0601F70083D0F0D0E032DD
:10009A00E4F51BF51CF51D12000312035D12038F14
:1000AA00120381AF1D12039BAF1C1203711203339B
:1000BA00E4FF12016B8F1BE51B64017021051CE52F
:1000CA001CD394034003E4F51CAF1C120371E51C16
:1000DA00B403047F0180027F001202EB80D2E51B89
:1000EA00B4020AE4F51DAF1D12039B80C3E51BB4DD
:0C00FA0003BE751D01AF1D12039B80B4F6
:0D02A60001120001130002100000011400FD
:0E038100C2A5E4F512F513F510F511F51422DE
:1002EB00EF60047F0180027F008F12E512700AC25B
:0A02FB00A5F513F510F511F5142216
:1001FD00E5127003C2A5220511E51170020510C3A9
:10020D00E51194C4E51094094014E4F510F511E5D9
:10021D001470047F0180027F008F14E4F513051321
:10022D00E51460047F0780027F04E513C39F40053A
:06023D00E4F513B2A52256
:0302B300011E0128
:0B03A700EF1FAC0670011E4C70F62228
:10016B00EF6003751E01E51E6401702E30B109307E
:10017B00B00630B20320B3227FE87E031203A7E45C
:10018B00F51E20B1037F012220B0037F022220B293
:10019B00037F032220B3127F042230B10C30B0094D
:0B01AB0030B20630B303751E017F0068
:0101B6002226
:03000300D2A02266
:03000600B2A02283
:0902B600011700011500011600FA
:10034800BF01037F0222BF02037F0422BF03037F92
:0503580007227F0022D6
:0C038F00C290C291E4F517F515F5162296
:100371008F17E517D394034003E4F517E4F516222C
:0C039B00EF60047F0180027F008F1522BC
:10024300AF17120348EF7005C290C291220516E55D
:1002530016C3940A4003E4F516E516C39F500280C3
:1002630001C39200E5157007A2009290C29122C2C9
:0502730090A200929131
:010278002263
:0B03BD003F065B4F666D7D077F6F0001
:0A02BF0008080A0A0A0A0A0A0A0AD5
:0B03B200EF1FAC0670011E4C70F6221D
:10035D007F087808740AF608DFFCD2A4D2A3D2A2D3
:03036D00E4F58034
:01037000226A
:10030500EFC394085011ED940A5004AE0580027EA7
:080315000A74082FF8A6062265
:0602CA008B188A19891A45
:1002D000E4FCAF04AB18AA19A91A8C82758300122A
:0A02E0000279FD1203050CBC08E8CA
:0102EA0022F1
:10010600EFC39408505EEFB40800504D900119F803
:1001160028287302013102013502013902013D022C
:100126000141020149020151020159D2A4800ED2B5
:10013600A48012D2A48016D2A4801AC2A4D2A3D2BA
:10014600A28016C2A4D2A3C2A2800EC2A4C2A3D207
:10015600A28006C2A4C2A3C2A274082FF8E6900326
:05016600BD93F58022AD
:10031D00E4FDAF051201067F647E001203B2E4F521
:05032D00800DBD08ED8C
:0103320022A8
:0300000002000EED
:0C000E00787FE4F6D8FD758120020055D3
:10027900BB010CE58229F582E5833AF583E022503A
:1002890006E92582F8E622BBFE06E92582F8E22284
:0D029900E58229F582E5833AF583E493229E
:10001A0002009AE493A3F8E493A34003F68001F262
:10002A0008DFF48029E493A3F85407240CC8C333E7
:10003A00C4540F4420C8834004F456800146F6DFB6
:10004A00E4800B01020408102040809002A6E47E9E
:10005A00019360BCA3FF543F30E509541FFEE493AB
:10006A00A360010ECF54C025E060A840B8E493A372
:10007A00FAE493A3F8E493A3C8C582C8CAC583CA9D
:10008A00F0A3C8C582C8CAC583CADFE9DEE780BE55
:0102C9000034
:00000001FF
