:020000040800F2
:10000000A807002091010008990100089B01000841
:100010009D0100089F010008A101000800000000E8
:10002000000000000000000000000000A301000824
:10003000A501000800000000A7010008A9010008B0
:10004000AB010008AB010008AB010008AB010008E0
:10005000AB010008AB010008AB010008AB010008D0
:10006000AB010008AB010008AB010008AB010008C0
:10007000AB010008AB010008AB010008AB010008B0
:10008000AB010008AB010008AB010008AB010008A0
:10009000AB010008AB010008AB010008AB01000890
:1000A000AB010008AB010008AB010008AB01000880
:1000B000691A0008AB010008AB010008AB01000899
:1000C000AB010008AB010008AB010008AB01000860
:1000D000AB010008A51D0008AB010008AB0100083A
:1000E000AB010008AB010008AB01000800F002F80A
:1000F00000F03FF80AA090E8000C82448344AAF183
:100100000107DA4501D100F034F8AFF2090EBAE880
:100110000F0013F0010F18BFFB1A43F0010318473B
:10012000E820000008210000103A24BF78C878C1F8
:10013000FAD8520724BF30C830C144BF04680C60ED
:10014000704700000023002400250026103A28BF35
:1001500078C1FBD8520728BF30C148BF0B60704739
:10016000642900F04380002070471FB51FBD10B503
:1001700010BD00F05FF91146FFF7F7FF01F0A2FF95
:1001800000F07DF903B4FFF7F2FF03BC01F01BFFA1
:100190000948804709480047FEE7FEE7FEE7FEE71B
:1001A000FEE7FEE7FEE7FEE7FEE7FEE70448054957
:1001B000054A064B70470000C9170008ED0000080B
:1001C000A8010020A8070020A8030020A803002001
:1001D000704700000FB4044910B503AA029800F05C
:1001E000FBF810BC5DF814FB2C0000202DE9F04159
:1001F0000646002410687529314616A510D0AFF3C5
:100200000080002802DA404213A507E031688A071F
:1002100001D512A502E0490704D511A5012401E08A
:10022000AFF3008000210A2206F1240709E0B0FBA9
:10023000F2FCB0FBF2F302FB1C003030785418469D
:10024000491C0028F3D123462A463046BDE8F04138
:1002500000F068B8000000002D0000002B00000036
:10026000200000002DE9F0410F46054600202862DD
:100270002846E968884770B3252805D0D5E90121CB
:100280009047286A401CF2E7E9682846002688471C
:100290006C2804460AD0682C08D04C2C35D06A2C27
:1002A00031D0742C31D07A2C2FD016E0E968064674
:1002B00028468847B042044608D16C2E23D04FF41C
:1002C00080662846E9688847044606E06C2E03D01D
:1002D0004FF4807601E01EE04026E4B1A4F1410035
:1002E000192802D8203446F400663A4621462846AA
:1002F0002E60FFF735FF60B1012808D0FF1D27F001
:1003000007070837B4E78026DBE70026D9E73F1D5B
:10031000AEE72046B2E7286ABDE8F0817047704733
:10032000704770472DE9F0470D46994692460446BE
:1003300000F124080168880604D5E06921F0100165
:10034000216000E00120A84201DD471B00E00027FA
:10035000A1697A1902EB0900081AA0612078C00689
:1003600002D42046AFF30080002608E0D4E9012142
:100370001AF806009047206A401C761C20624E4501
:10038000F4DB2078C0060AD52046AFF3008006E0F3
:10039000D4E9012130209047206A401C2062381E99
:1003A000A7F10107F4DC07E0D4E9012118F8050002
:1003B0009047206A401C2062281EA5F10105F3DC4D
:1003C0002046AFF300802078000602D50220BDE869
:1003D000F0870120FBE70000074B70B50D467B441A
:1003E00000F011F80446284600F020F810B14FF054
:1003F000FF3070BD204670BDC71C000001694A1C5B
:1004000002610878704700B58FB0CDE90131002155
:10041000059105497944CDE9031011466846FFF777
:1004200021FF0FB000BD0000E5FFFFFF007B00F0E3
:1004300080007047754600F02BF8AE46050069460F
:10044000534620F00700854618B020B5FFF7AEFEF2
:10045000BDE820404FF000064FF000074FF00008C5
:100460004FF0000B21F00701AC46ACE8C009ACE846
:10047000C009ACE8C009ACE8C0098D46704710B5AA
:100480000446AFF300802046BDE81040FFF77ABE77
:10049000004870474401002021B1826842F0010207
:1004A000826003E0826822F00102826070470000EF
:1004B00010B504461248844208D10121401501F0CC
:1004C00013F80021601501F00FF817E00D48844281
:1004D00008D10121001501F007F80021201501F0D5
:1004E00003F80BE00848844208D10121C80300F05A
:1004F000FBFF00214FF4004000F0F6FF10BD0000AC
:100500000024014000280140003C01400146002039
:100510008A6802F004020AB1012000E0002070475E
:100520000146C86C80B270470246002013680B4039
:100530000BB1012000E000207047014600208A68CE
:1005400002F008020AB1012000E00020704700001C
:1005500030B502460020002350680F4C20400D7932
:100560000C6844EA05242043506090680B4C2040FE
:10057000D1E902542C434D7944EA4504204390606C
:10058000D06A20F470000C7C641EE4B2234340EA7D
:100590000350D06230BD0000FFFEF0FFFDF7F1FF19
:1005A000F0B504460D4600200021092D11DDE0685C
:1005B000A5F10A0606EB4607072606FA07F1884367
:1005C000A5F10A0606EB460603FA06F10843E060C9
:1005D0000CE0206905EB4507072606FA07F188437A
:1005E00005EB450603FA06F108432061072A0FDAF6
:1005F000606B561E06EB86071F2606FA07F1884336
:10060000561E06EB860605FA06F10843606322E0F3
:100610000D2A0FDA206BD61F06EB86071F2606FA77
:1006200007F18843D61F06EB860605FA06F1084354
:10063000206310E0E06AA2F10D0606EB86071F2694
:1006400006FA07F18843A2F10D0606EB860605FAC5
:1006500006F10843E062F0BD816841F00801816065
:10066000704721B1826842F4A002826003E0826890
:1006700022F4A00282607047816841F00401816029
:100680007047000000B585B00121480200F01CFF52
:100690004FF4004000F0FCFE1948FFF709FF00206E
:1006A00000908DF804008DF805004FF46020029052
:1006B0000020039001208DF8100069461048FFF7D4
:1006C00047FF0623012219460D48FFF769FF012164
:1006D0000B48FFF7E1FE0A48FFF7BEFF00BF0848DE
:1006E000FFF72BFF0028FAD10548FFF7C5FF00BF31
:1006F0000348FFF70BFF0028FAD105B000BD00004A
:100700000024014010B50446062301222146094871
:10071000FFF746FF01210748FFF7A3FF00BF0221B3
:100720000448FFF701FF0028F9D00248FFF7F8FE60
:1007300010BD00000024014070B50024002505E034
:100740000020FFF7DFFF0444681CC5B2042DF7D377
:10075000C4F38F0070BD000008B501210C2000F02B
:10076000B3FE10208DF8030003208DF802008003F3
:10077000ADF800006946204800F0F3F90220ADF81A
:10078000000018208DF8030069461B4800F0E9F9C5
:100790000420ADF8000048208DF803006946174892
:1007A00000F0DFF9C020ADF8000004208DF8030050
:1007B0006946114800F0D5F94120ADF8000000204D
:1007C0008DF8030069460D4800F0CBF94FF4406006
:1007D000ADF8000014208DF803006946064800F0CB
:1007E000C0F94FF44061044800F04CFA4FF4404126
:1007F000014800F045FA08BD000C01400008014026
:100800001FB5214800F014FE204800F05BFFFFF701
:1008100093FF1F4908600846006800F049F81D4929
:10082000086000F0D7FA0121084600F03DFE47209D
:10083000ADF8040042F20F70ADF808000020ADF8EA
:100840000A00ADF8060001A94FF0804001F058FA07
:100850001C208DF8000001208DF801008DF80200A9
:100860008DF80300684600F0C5FA0121880701F001
:1008700014F901221146900701F0B3F9012188070C
:1008800001F00EF91FBD0000380000203C000020E0
:10089000600000204C00002002468A4201DD08462C
:1008A00070474842824201DA4842F9E71046F7E7CA
:1008B000014642F21070484340F6FF7290FBF2F09E
:1008C000A0F598508838704710B50146002000BF49
:1008D000EFF310831A4672B60D4B1B78ABB10D4B7C
:1008E0001B680B600C4B1B684B600C4B1B688B60D0
:1008F0000B4B1B68CB600B4B1B680B610A4B1B68D7
:100900004B610023024C2370012002B962B610BD76
:100910005C00002044000020480000204C00002023
:1009200050000020540000205800002070B500F056
:10093000D9F804462C48006820442B4908606420FC
:1009400004FB00F529482A49097850F82100294973
:100950000968081A2749086024482549097840F899
:100960002150244800682844224908602048007823
:10097000401C1F49087008460078042801D3002055
:1009800008701C490868C11700EB917189101A4A58
:100990001160FFF7D1FE1949086008460068FFF7AB
:1009A00087FF17490860002000F06EF901280AD17E
:1009B00014480078401C1349087008460078042841
:1009C00001D30020087000F023F80F480078401C85
:1009D0000D49087008460078022804D300200870EA
:1009E00001200A49087070BD440000203401002035
:1009F0006A00002064000020480000206000002001
:100A00004C00002069000020680000205C000020ED
:100A100010B51E481E49097850F821401D4800684D
:100A20001D490968401A1D4908606CB900201C491D
:100A300008601C4908601C4800F000FD1B4800F0DD
:100A400047FE00F0C7F910BD194803681248026854
:100A500010480168144800F0F5FC1149086021466F
:100A60000F480068FFF718FF0D490860104802683A
:100A7000084601680D4800F02FFE0A490860084644
:100A8000006800B200F074F900BFDCE7F82100084C
:100A9000690000204C000020440000205800002085
:100AA0005000002054000020380000203C000020AE
:100AB0004800002010B50121042000F0F5FC024898
:100AC00000F018F810BD00000008004070B50446A2
:100AD000204601F012F805B20021204601F0E2F8AC
:100AE000284670BD10B50248FFF7F0FF10BD0000AA
:100AF0000008004010B586B004460020ADF80C0098
:100B00004FF6FF70ADF810000020ADF81200ADF800
:100B10000E0003A9204601F0F3F800231A46032132
:100B2000204600F0C9FF684601F052F80620ADF8F3
:100B300008000020ADF800006946204600F0F2FFF2
:100B40000420ADF800006946204600F0EBFF0021CC
:100B5000204601F0A7F80121204600F0A1FF06B0D1
:100B600010BD2DE9F041024600250026002000239B
:100B70000024002791F803C00CF00F0591F803C082
:100B80000CF0100CBCF1000F03D091F802C04CEA3D
:100B9000050591F800C0BCF1000F31D014680020A9
:100BA0002BE04FF0010C0CFA00F3B1F800C00CEA96
:100BB00003069E4220D183004FF00F0C0CFA03F77E
:100BC000BC4305FA03FC4CEA040491F803C0BCF1F1
:100BD000280F06D14FF0010C0CFA00FCC2F814C02B
:100BE0000AE091F803C0BCF1480F05D14FF0010CA9
:100BF0000CFA00FCC2F810C0401C0828D1D31460C5
:100C0000B1F800C0BCF1FF0F34DD546800202EE0C5
:100C100000F1080C4FF0010808FA0CF3B1F800C01D
:100C20000CEA03069E4221D183004FF00F0C0CFA10
:100C300003F7BC4305FA03FC4CEA040491F803C033
:100C4000BCF1280F05D100F1080C08FA0CF8C2F825
:100C5000148091F803C0BCF1480F07D100F1080CD3
:100C60004FF0010808FA0CF8C2F81080401C082860
:100C7000CED35460BDE8F0810146886880B27047E9
:100C8000416170470161704770B5054615B101209B
:100C9000164908701648FFF7EFFFC0F380041548A7
:100CA0000078844209D11448007802280AD21248F8
:100CB0000078401C1049087004E00E4804700020C1
:100CC0000D4908700C48007868B108480078012880
:100CD00005D124B9002005490870012070BD14B168
:100CE0000120024908700020F8E7000032000020CF
:100CF00000080140330000203400002000B587B018
:100D00000121022000F0D0FB4720ADF8100040F296
:100D1000E730ADF814000020ADF81600ADF8120071
:100D200004A9124800F0ECFF684600F0AEFF602016
:100D3000ADF800000120ADF802000020ADF8080079
:100D4000ADF806006946094800F054FF082107483D
:100D500000F08EFF0121054800F093FE01210348B9
:100D600000F09EFE00F036F807B000BD0004004021
:100D700070B5044614B900F02DF870BD002C0CDAE3
:100D80004FF480411148FFF77BFF4FF400410F48BB
:100D9000FFF778FF604204B209E04FF480410B484E
:100DA000FFF770FF4FF400410848FFF769FFB4F503
:100DB0007A7F02D340F2E73000E0A0B20546294630
:100DC000034800F06CFF00BFD7E70000000C0140B3
:100DD0000004004010B50021044800F060FF4FF40B
:100DE00040410348FFF74CFF10BD000000040040E5
:100DF000000C014070B5002100230F22C47804B319
:100E0000154C246804F4E064C4F5E064210AC1F1DF
:100E10000403CA40447804FA03F18478144021435F
:100E200009010E4C0678A155047804F01F05012431
:100E3000AC4005786D11AD0005F1E025C5F8004125
:100E400009E0047804F01F050124AC40044D067845
:100E5000761145F8264070BD0CED00E000E400E09E
:100E600080E100E002490143024A1160704700003E
:100E70000000FA050CED00E070B5002412E000213E
:100E8000204600F0F3F900F014F8002504E00020FB
:100E900000F041F9681CC5B2802DF8D300F005F8C8
:100EA000601CC4B2082CEAD370BD10B500F027F95D
:100EB00010BD10B500F015F9782000F02CF9402095
:100EC00000F029F910BD00220A704A708A70CA70B9
:100ED0000A7138287DD00CDCA0F12B020D2A6CD2CF
:100EE000DFE802F0E6F7F0F7F7202B36414C5760C9
:100EF0006C004D2876D00CDC442874D004DC3928F2
:100F000077D03A2859D1CAE049286ED04C28F9D177
:100F1000A0E04F286AD050287ED0532873D05428A0
:100F2000F0D1B3E03E220A7051224A7049228A7001
:100F30004522CA703E220A71CCE000220A70422289
:100F40004A707F228A704022CA7000220A71C1E072
:100F500042220A7061224A7051228A704922CA7064
:100F600046220A71B6E021220A7041224A704522C7
:100F70008A704B22CA7031220A71ABE018220A70C3
:100F800014224A7012228A707F22CA7010220A71BB
:100F9000A0E027220A7045224A708A70CA7039225E
:100FA0000A7197E03C220A704A224A7049228A70EC
:100FB000CA7030220A718DE00BE08AE001220A70CB
:100FC00071224A7009228A700522CA7003220A71AE
:100FD00080E036220A7049224A708A70CA7036222E
:100FE0000A7177E03EE020E003E028E045E013E00E
:100FF00009E006220A7049224A708A702922CA70C2
:101000001E220A7166E046220A7049224A708A70DE
:10101000CA7031220A715DE07F220A7009224A708B
:101020008A70CA7006220A7154E07F220A70412237
:101030004A708A702222CA701C220A714AE0002279
:101040000A7041224A707F228A704122CA700022AF
:101050000A713FE07F220A7040224A708A70CA708B
:101060000A7137E07F220A7002224A700C228A70CD
:101070000222CA707F220A712CE03E220A704122AD
:101080004A708A70CA703E220A7123E001220A70F7
:101090004A707F228A700122CA700A711AE0002207
:1010A0000A7036224A708A700022CA700A7111E0F2
:1010B00008220A704A703E228A700822CA700A7199
:1010C00008E0FFE708220A704A708A70CA700A7145
:1010D00000E000BF00BF704710B5022000F0BEFF67
:1010E00010BD10B500F0AEF800F098F8FFF7F4FF6F
:1010F00000F0B2F8FFF7F0FF00F09AF810BD10B55D
:1011000000F0AAF800F08AF8FFF7E6FF00F09AF87E
:10111000FFF7E2FF10BD70B50446002513E004F0B0
:10112000800010B100F08EF801E000F095F800F0BA
:1011300075F8FFF7D1FF00F07BF8FFF7CDFF6006F1
:10114000040E681CC5B2082DE9D300F07BF800F04E
:1011500065F8FFF7C1FF00F06BF870BD10B500F047
:1011600071F800F05BF8142000F052FFAE2000F0A0
:10117000CFF8202000F0CCF8022000F0C9F8B02011
:1011800000F0C6F8C82000F0C3F8002000F0C0F856
:10119000102000F0BDF8402000F0BAF8812000F0E7
:1011A000B7F87F2000F0B4F8A12000F0B1F8A62035
:1011B00000F0AEF8A82000F0ABF83F2000F0A8F84F
:1011C000A42000F0A5F8D32000F0A2F8002000F041
:1011D0009FF8D52000F09CF8802000F099F8D920E5
:1011E00000F096F8F12000F093F8DA2000F090F883
:1011F000122000F08DF8DB2000F08AF8402000F08B
:1012000087F88D2000F084F8142000F081F8FFF7B3
:1012100033FEAF2000F07CF810BD000010B54FF495
:1012200080610248FFF72EFD10BD0000000C014058
:1012300010B54FF480610248FFF722FD10BD000099
:10124000000C014010B54FF400610248FFF71AFD91
:1012500010BD0000000C014010B54FF400610248C1
:10126000FFF70EFD10BD0000000C014070B50546F3
:101270000C4605F1B001C8B200F04AF804F00F00C6
:1012800000F046F8102141EA141000F041F870BD5A
:101290002DE9F04104460D4617461E462A460AA18E
:1012A000002000F05BF8224609A1022000F056F869
:1012B000324609A1042000F051F83A4608A1062060
:1012C00000F04CF8BDE8F0815350443A00000000B3
:1012D000504F533A00000000545350443A0000006D
:1012E00054504F533A0000007CB5054669462846E5
:1012F000FFF7E9FD002405E01DF80400FFF70BFFF0
:10130000601CC4B2052CF7D30020FFF704FF7CBD9E
:1013100010B50446FFF7E5FE7820FFF7FCFE00203D
:10132000FFF7F9FE2046FFF7F6FEFFF7E8FE10BDD7
:1013300070B50546002D07DA2D20FFF7D5FF68426E
:1013400000F03BF8044606E02B20FFF7CDFF2846CF
:1013500000F033F80446601CC0B270BD2DE9F041C6
:1013600007460D46164600213846FFF77FFFFFF778
:10137000A0FD284600F012F804463046FFF7D8FFDB
:101380002044C4B204E02020FFF7AEFF601CC4B2CA
:10139000152CF8D3FFF789FDBDE8F08170B5044640
:1013A000002505E014F8010BFFF79EFF681CC5B28D
:1013B00020780028F6D1284670BDFEB504460025E9
:1013C00024B93020FFF790FF0120FEBD0DE00A2078
:1013D000B4FBF0F100FB1140303029466A1CD5B255
:1013E0000DF801000A20B4FBF0F40CB10A2DEED385
:1013F0002E4606E0711E1DF80100FFF775FF701EF6
:10140000C6B2002EF6D12846DFE70146002901DAF0
:10141000484270470846FCE702468A4201DD08461A
:1014200070474842824201DA4842F9E71046F7E73E
:1014300000B50246104600F001F800BD0021016031
:10144000704700002DE9F04705460E4617469846BE
:10145000F01B0E49FFF7E0FF04462C602046FFF723
:10146000D4FF052802DC0020BDE8F08740F6C41058
:101470006043FA2101FB1800890090FBF1F942F268
:1014800010714846FFF7C8FFEEE70000A086010094
:1014900001460020034A506820F440400843506051
:1014A000704700000010024029B1064AD269024389
:1014B000044BDA6104E0034AD2698243014BDA61EA
:1014C000704700000010024029B1064A92690243A9
:1014D000044B9A6104E0034A92698243014B9A618A
:1014E000704700000010024029B1064AD26802434A
:1014F000044BDA6004E0034AD2688243014BDA60AD
:10150000704700000010024030B500210022002486
:1015100000232D4D6D6805F00C0121B1042905D083
:10152000082923D105E0294D056022E0274D0560FB
:101530001FE0254D6D6805F47012234D6D6805F4AC
:101540008034022505EB92421CB9214D55430560BC
:101550000BE01D4D6D6805F400351DB11C4D554364
:10156000056002E0194D5543056002E0174D056026
:1015700000BF00BF144D6D6805F0F0010909154D5D
:101580006B5C0568DD4045600F4D6D6805F4E061FA
:10159000090A104D6B5C4568DD4085600A4D6D6839
:1015A00005F46051C90A0B4D6B5C4568DD40C560B0
:1015B000054D6D6805F44041890B074D6B5CC568AE
:1015C000B5FBF3F5056130BD0010024000127A0052
:1015D00000093D00140000202400002010B500F098
:1015E00001F810BD0CB50020019000903348006850
:1015F00040F480303149086000BF3048006800F492
:10160000003000900198401C0190009818B9019892
:10161000B0F5A06FF1D12948006800F4003010B196
:101620000120009001E0002000900098012843D1A3
:101630002348006840F0100021490860084600680F
:1016400020F0030008600846006840F002000860CF
:101650001A4840681949486008464068486008468A
:10166000406840F4806048600846406820F47C1080
:1016700048600846406840F4E81048600846006842
:1016800040F08070086000BF0C48006800F00070F7
:101690000028F9D00948406820F003000749486055
:1016A0000846406840F00200486000BF03484068B8
:1016B00000F00C000828F9D10CBD00000010024019
:1016C0000020024000B50246104600F001F800BDBF
:1016D00000210160416070472DE9F05F04460D462E
:1016E0009046002D02DD6068002804DB002D04DA3E
:1016F0006068002801DD012000E000208346BBF186
:10170000000F01D00020206065604DB900202060EE
:101710004046FFF77AFE642802DC0020BDE8F09F17
:10172000A5EB080047F23051FFF776FE064630463B
:10173000FFF76BFE322800DC002621688819174964
:10174000FFF76AFE07465A2068433C2101FB060169
:10175000042202FB07104FF47A7190FBF1F9B9F5FE
:101760007A7F01DB002E05DC19F57A7F01DC002E83
:1017700000DB27605A2068433C2101FB060004225D
:10178000216802FB01004FF47A7190FBF1FA491EC7
:101790005046FFF741FE00B2C0E70000F0490200EA
:1017A000042808D14FF0E021096941F004014FF00D
:1017B000E022116107E04FF0E021096921F0040106
:1017C0004FF0E0221161704710B51348006840F0F7
:1017D00001001149086008464068104908400E4958
:1017E0004860084600680E4908400B4908600846F2
:1017F000006820F4802008600846406820F4FE005D
:1018000048604FF41F008860FFF7E8FE4FF000606B
:101810000449086010BD0000001002400000FFF8FD
:10182000FFFFF6FE08ED00E0F0B50C46154600227D
:101830000021068C4FF6FE773E400684028B018C19
:101840004FF60C7632407E1C06EA03162E433243D6
:10185000104EB0420ED0104EB0420BD0B0F1804FBF
:1018600008D00E4EB04205D00D4EB04202D00D4E03
:10187000B04206D14FF6FD76314044F001063143C7
:1018800005E04FF6F576314044F00106314302831E
:101890000184F0BD002C01400034014000040040F0
:1018A00000080040000C0040F0B50C461546002230
:1018B00000210026078C4FF6EF7C07EA0C0707840F
:1018C000028B018C4FF6FF7707EA041640F6FF47BC
:1018D0003A404FF6FF7707EA03373A434FF6FF7770
:1018E00007EA05273A43114FB8420ED0104FB842CD
:1018F0000BD0B0F1804F08D00E4FB84205D00E4F3C
:10190000B84202D00D4FB84206D14FF6DF773940CA
:1019100046F01007394305E04FF65F77394044F051
:101920001007394302830184F0BD0000002C014000
:10193000003401400004004000080040000C00405A
:10194000F0B50C461546002200210026078C4FF604
:10195000FF6C07EA0C070784828B018C4FF6FF7738
:1019600007EA04264FF60C773A404FF6FF7707EA6E
:1019700003172F433A43114FB8420ED0104FB842CD
:101980000BD0B0F1804F08D00E4FB84205D00E4FAB
:10199000B84202D00D4FB84206D14FF6FF5739403A
:1019A00046F48077394305E04FF2FF57394044F45D
:1019B0008077394382830184F0BD0000002C014010
:1019C000003401400004004000080040000C0040CA
:1019D000F0B50C461546002200210026078C4EF675
:1019E000FF7C07EA0C070784828B018C4FF6FF7798
:1019F00007EA043640F6FF473A404FF6FF7707EA1A
:101A000005273A434FF6FF7707EA03373A43114F6A
:101A1000B8420ED0104FB8420BD0B0F1804F08D072
:101A20000E4FB84205D00E4FB84202D00D4FB8420B
:101A300006D14DF6FF77394046F48057394305E02B
:101A400047F6FF57394044F4805739438283018475
:101A5000F0BD0000002C01400034014000040040B3
:101A600000080040000C004010B50121880700F07C
:101A700047F828B10121880700F00FF8FEF756FF5C
:101A800010BD21B1028842F08002028004E0028889
:101A90004FF67F731A4002807047CA430282704734
:101AA00021B1028842F00102028004E002884FF670
:101AB000FE731A4002807047F0B50C4615461E466C
:101AC0000021002200230189028B038C4FF6F87756
:101AD000394021434FF6FC473A4040F201173A4360
:101AE0004FF6DD773B404FF6FF7707EA06172F43A7
:101AF0003B43018102830384F0BD0146888C70471B
:101B000030B50246002000230024158A05EA0103AF
:101B1000958905EA010413B10CB1012000E0002011
:101B200030BD000070B505460C46244885420ED0F5
:101B3000234885420BD0B5F1804F08D0214885421B
:101B400005D02148854202D02048854200D100E0DE
:101B500000BF208850B92389A28861882846FFF7F2
:101B600063FEE188284600F09FF825E020880428DD
:101B70000AD12389A28861882846FFF795FEE1886B
:101B8000284600F09AF817E0208808280AD123890F
:101B9000A28861882846FFF7D3FEE188284600F036
:101BA00099F809E02389A28861882846FFF710FF89
:101BB000E188284600F097F870BD0000002C014035
:101BC000003401400004004000080040000C0040C8
:101BD000002101804180012181800021C18001819B
:101BE00070471AB183890B43838102E083898B4359
:101BF0008381704770B5002200230024058C4EF6C7
:101C0000FF7635400584038C8488828B48F6FF7507
:101C10002A404FF6FF452A400D884FF6FF7606EA28
:101C200005252A434DF6FF752B400D8906EA05353B
:101C30002B434D8806EA05352B430B4DA84202D0B5
:101C40000A4DA84208D14BF6FF752C408D894FF6FE
:101C5000FF7606EA85152C4384808283CD88A0F820
:101C60004050038470BD0000002C0140003401404E
:101C70000A460021818B4FF2FF7319404FF6FF7324
:101C800003EA0223194381837047002101804180C8
:101C90008180C180018141818181C1817047A0F82B
:101CA0004010704781847047028B4FF6F3731A40DF
:101CB0000283028B0A4302837047028B4FF2FF3389
:101CC0001A400283028B4FF6FF7303EA01231A4383
:101CD00002837047828B4FF6F3731A408283828BA4
:101CE0000A4382837047828B4FF2FF331A4082830C
:101CF000828B4FF6FF7303EA01231A4382837047F6
:101D0000002202881D4B98420ED01D4B98420BD0EA
:101D1000B0F1804F08D01B4B984205D01A4B984227
:101D200002D01A4B984204D14FF68F731A404B8859
:101D30001A43174B984207D0164B984204D04FF6DF
:101D4000FF431A40CB881A4302808B8883850B8817
:101D500003850A4B98420BD0094B984208D00E4B92
:101D6000984205D00D4B984202D00D4B984201D1BC
:101D70000B7A03860123838270470000002C014008
:101D8000003401400004004000080040000C004006
:101D90000010004000140040004001400044014099
:101DA0000048014010B540F225511D4800F04AF8A6
:101DB00010B31B4800F002F9C4B21A48008800F4BE
:101DC0000040C8B91748008800F4804060B10A2C70
:101DD00003D000201349088020E01248008840F416
:101DE00000401049088019E00D2C06D10D480088EC
:101DF00040F480400B49088010E00A480088C0F396
:101E00000D0009490C5407480088401C054908800A
:101E100008460088C72801DD0020088010BD0000AA
:101E200000380140300000206C00002021B1828980
:101E300042F40052828104E082894DF6FF731A4019
:101E40008281704770B502460024002300250020DF
:101E500040F66A16B14200D100BFC1F3421501F04D
:101E60001F03012606FA03F3012D02D196893340A0
:101E700006E0022D02D1168A334001E0968A3340F3
:101E80000C12012606FA04F41688344013B10CB182
:101E9000012000E0002070BDF0B5034600240026BC
:101EA0000025002040F66A17B94200D100BF18464D
:101EB000C1F3421401F01F06012707FA06F5012CB1
:101EC00001D10C3004E0022C01D1103000E01430BC
:101ED0001AB107682F43076002E00768AF43076045
:101EE000F0BD00002DE9F04786B005460E460024FF
:101EF000A24600BFA1460027B08900B100BF2F460F
:101F00002C8A4CF6FF700440F08804432C82AC8984
:101F10004EF6F3100440B0883189084371890843B4
:101F20000443AC81AC8A4FF6FF400440B0890443BF
:101F3000AC8201A8FFF7E8FA1F48874202D1DDF81A
:101F400010A001E0DDF80CA0A88900F4004040B129
:101F50000AEBCA0000EB0A1031684900B0FBF1F847
:101F600007E00AEBCA0000EB0A1031688900B0FBF9
:101F7000F1F86420B8FBF0F004012009642101FBB2
:101F80001089A88900F4004040B1322000EBC9005C
:101F9000B0FBF1F000F00700044308E0322000EB52
:101FA00009106421B0FBF1F000F00F0004432C8114
:101FB00006B0BDE8F087000000380140014688887F
:101FC000C0F30800704700BF7047000010B56FF005
:101FD0000400FFF7E5FB0A4800680A49B0FBF1F08E
:101FE000094908700846007800EB4001C1EBC010B9
:101FF0004FF6FF7101EAC0000449088010BD0000DF
:102000000000002000127A00280000202A00002092
:102010000146114A12884A434FF0E0235A610022D8
:102020009A611A46126942F001021A6100BF4FF02C
:10203000E022106900F001021AB100F48032002A97
:10204000F5D04FF0E022126922F001024FF0E023B8
:102050001A6100229A6170472A0000200146114A45
:1020600012784A434FF0E0235A6100229A611A46DF
:10207000126942F001021A6100BF4FF0E0221069BC
:1020800000F001021AB100F48032002AF5D04FF0BE
:10209000E022126922F001024FF0E0231A610022CF
:1020A0009A6170472800002000BF054A128802F09C
:1020B0004002002AF9D0C2B2014B1B1D1A807047A2
:1020C000003801408AB00024FFF77EFB4FF4A06087
:1020D000FEF7C8FEFFF77AFFFEF73EFBFEF70EFEA7
:1020E000FEF7E8FCFEF7CEFAFFF738F84FF4E130E0
:1020F00000F032F800231A4619461846FFF7C8F8D0
:10210000FEF77EFB18E004A8FEF7DEFBA0B1DDE9D8
:1021100008200599CDE90012029008A0DDE9061318
:10212000049AFEF757F8601CC4B2052C04D30024AF
:1021300004A80FC8FFF7ACF8E5E70000256C642C95
:10214000256C642C256C642C256C642C256C642C0B
:10215000256C640D0A00000010B586B0044601210C
:1021600044F20400FFF7B0F94FF40070ADF814002A
:1021700003208DF8160018208DF8170005A91C48BB
:10218000FEF7EFFC4FF48060ADF8140004208DF8EA
:10219000170005A91648FEF7E4FC25208DF800007D
:1021A00003208DF801008DF8020001208DF8030056
:1021B0006846FEF71FFE01940020ADF80800ADF858
:1021C0000A00ADF80C00ADF810000C20ADF80E00C0
:1021D00001A90848FFF786FE012240F22551054873
:1021E000FFF75AFE01210348FFF720FE06B010BD9D
:1021F000000801400038014000000000D007000046
:10220000A00F0000581B000028220008000000203A
:102210006C00000028010008942200086C000020D7
:102220003C0700004401000800A24A04000000002E
:102230000000000001020304060708090000000076
:102240000102030401020304060708090204060848
:10225000000000000000000000000101000000007C
:10226000000000000000000000000000000000006E
:10227000000000000000000000000000000000005E
:10228000000000000100000000000000000000004D
:04229000000000004A
:04000005080000ED02
:00000001FF
