:1008AE00E99C80E8A681E69591E68FB40D0A00E6F4
:1008BE008AA5E5918AE4BD8DE7BDAE0030310D0A03
:0808CE0000E694B6E588B000D5
:100621000116000108000109000214000001100078
:0D063100011700011300010F00021100006D
:10000E005389F0438901758CFF758A38C28DD2A948
:05001E00D2AFD28C22DC
:03000B000203F9F4
:1003F900C0E0C0F0C083C082C0D075D000C000C0CA
:1004090001C002C003C004C005C006C007C28D7583
:100419008CFF758A3812081912071EE50F6013C37D
:10042900E5129450E51194C350080512E5127002C3
:100439000511E5086020C3E51594B8E514940B503F
:100449000A0515E51570180514801475140075153D
:10045900007510018009751400751500751000D01C
:1004690007D006D005D004D003D002D001D000D0E7
:0A047900D0D082D083D0F0D0E03262
:10076400E4F51A7D0AAF1A120B05051AE51AC394AB
:100774000840F0E4F51AE51AC395165022E508601E
:100784000EE51614B51A08E50970047D0A8007748D
:0F0794000A251AF8E6FDAF1A120B05051A80D7D1
:0107A3002233
:100BB500E4F516F508F509F514F515F510020764C1
:1009D000E516C394055018E4F508740A2516F8A620
:1009E000070516E4F509F514F515F510120764224C
:100B1D00E516D394004006750801750901E4F51436
:070B2D00F515F51002076445
:100A6900E5086009E516D3940040021516E4F50877
:0B0A7900F509F514F515F510020764EF
:100B3400E516B40310E50AB4010BE50BB40206E5AF
:070B44000C7002D322C32252
:100A8400E5106016E4F510E508600FE50970047FD1
:0B0A94000180027F008F09120764221E
:10094800E4F50FF511F512FF120C2DE4FF120BD58B
:10095800E4FF120AB9E4FF120C6E120BB5E4F517A6
:03096800F5132262
:10092300E4FF120C567F01120C2D7F03120BD57FAF
:1009330001120AB97F01120C6EE4F511F512750F5D
:050943000175170322FD
:1009F000E4F508F509120764120B345012120CA129
:100A00007BFF7A0879AE120BA2751701E4F5132269
:1007E0008B1A8A1B891C85138275830012011DB523
:1007F0000711051385138275830012011D7018F50A
:1008000013D322AB1AAA1BA91C120104B507047F3B
:090810000180027F008F13C32256
:1006D7007B007A0079191209AFEF603AE517B40188
:1006E7001E7BFF7A0879BDAF191207E050E2751734
:1006F70002E4F5137BFF7A0879CA120BA280D1E5D1
:1007070017B402CC7BFF7A0879CFAF191207E050F4
:06071700BF12092380BAA5
:01071D0022B9
:10088600EFC394014007EFD39409500122BF0A0336
:100896007F1022BF0B037F1122BF0C037F1222BFE2
:0808A60010037F13227F0022E2
:100851001208868F19E519D394095006E51960022B
:100861008007E519B41005E4FF0209D0E519B411B8
:1008710003020B1DE519B41203020A69E519B41349
:04088100031209F065
:010885002250
:1005C200E4F518120B61120C1F120C111202DF1249
:1005D2000A10120BC5E4FF120C56E4FF120BD5E40D
:1005E200FF120AB9E4FF120C6E120BB512000E12C2
:1005F2000A84120B771208FD1206D7E50F600EC3AC
:10060200E5129450E51194C34003120948E51770AE
:0F061200DE120A2F8F18E51860D512085180D01C
:04063E00021E000098
:100BC500D2B2D2B3E4F51EF51FD288C289D2A822CB
:03000300020A9F4F
:100A9F00C0E030B30AE51F151F700C151E80080546
:0A0AAF001FE51F7002051ED0E032A3
:0D0C0300C2A8AF1FAE1EE4F51EF51FD2A85B
:010C100022C1
:0D064200014E00014F00024C00000150006D
:0E0C1100C2A5E4F54EF54FF54CF54DF5502219
:100AB900EF60047F0180027F008F4EE54E700AC20D
:0A0AC900A5F54FF54CF54DF5502250
:10071E00E54E7003C2A522054DE54D7002054CC392
:10072E00E54D94C4E54C94094014E4F54CF54DE5C3
:10073E005070047F0180027F008F50E4F54F054F0B
:10074E00E55060047F0780027F04E54FC39F40059C
:06075E00E4F54FB2A522F4
:09064F000155000156010157009C
:040BE5007FE87E0324
:0B0BE900EF1FAC0670011E4C70F622DE
:100251007590F7AF90EF2449600F24E0600E24F011
:10026100600D2470700C7F01227F05227F09227F9F
:100271000D227590FBAF90EF2445600F24E0600ED6
:1002810024F0600D2470700C7F02227F06227F0A09
:10029100227F0E227590FDAF90EF2443600F24E082
:1002A100600E24F0600D2470700C7F03227F072202
:1002B1007F0B227F0F227590FEAF90EF2442600FDB
:1002C10024E0600E24F0600D2470700C7F04227F06
:0E02D10008227F0C227F10227590FF7F0022F2
:100A2F00120251EF7007F555755601FF22EFB555BC
:0D0A3F0008E5566006E4F556228F557F004D
:010A4C002287
:10002600E4F55E7590F7E59064F76028120BE5AF8E
:1000360090EF2449601124E0601224F060132470CC
:100046007012755E01800D755E058008755E09800B
:1000560003755E0DE590B4F7FB7590FBE59064FBC8
:100066006028120BE5AF90EF2445601124E0601282
:1000760024F0601324707012755E02800D755E06A2
:100086008008755E0A8003755E0EE590B4FBFB750D
:1000960090FDE59064FD6028120BE5AF90EF2443D8
:1000A600601124E0601224F0601324707012755EF3
:1000B60003800D755E078008755E0B8003755E0F05
:1000C600E590B4FDFB7590FEE59064FE6028120B8A
:1000D600E5AF90EF2442601124E0601224F0601333
:1000E60024707012755E04800D755E088008755E5A
:0D00F6000C8003755E10E590B4FEFBAF5E5C
:0101030022D9
:1004F20075900FE590640F605C120BE5E590640F58
:10050200605675900FAF90EF24F5601024FE6011D5
:1005120014601324077012755701800D75570280FD
:100522000875570380037557047590F0AF90EF2458
:1005320050600C24E0600C24F0600C2470800E7477
:1005420004800674088002740C2557F557E5906400
:0A055200F0600580F8E4F557AF579C
:01055C00227C
:09065800015A000158000159008B
:100B8D00BF01037F0222BF02037F0422BF03037F45
:050B9D0007227F002289
:0E0C1F00C2A6C2A7C2A1E4F55AF558F55922A3
:100BD5008F5AE55AD394034003E4F55AE4F55922B4
:0E0C2D00EF700AF55AF559C2A6C2A7C2A1225D
:0C0C5600EF60047F0180027F008F5822B5
:10081900AF5A120B8DEF7007C2A6C2A7C2A122055B
:1008290059E559C3940A4003E4F559E559C39F5062
:10083900028001C39200A20092A1E5587005D2A6D8
:07084900C2A722C2A6D2A73C
:010850002285
:1001B10008188C06AC00AA00AB1EAB20AA21AA230A
:1001C100AA26AE20AA20A830A81CF803000C00180B
:1001D10000001A2632230231FF1FA201320312321C
:1001E10070107C18870F0406840F7C1804300400FB
:1001F10010001010F10F020810041500D51F55054D
:1002010055055F05551555155515D51F11000000EC
:1002110020302118E20F0412C0217F20D12F512458
:100221005124DF2F2A203221E32F32212A212221BA
:10023100200020002120E31F0610000800240020D8
:100241000020FF3F1020102010201020102000203F
:0A0661000153000154000251007F14
:060C9A00E4FF0FBF02FCA5
:010CA0002231
:100AED00E4FDFCC3ED9FEC9E500DE4FB0BBB78FCCD
:070AFD000DBD00010C80ECAF
:010B040022CE
:0F0BF400D2B5D2B4120C9AC2B5120C9AC2B42266
:0A0C9000C2B5D2B4120C9AD2B522FC
:0208D600AE076B
:1008D800E4FDEE30E703D38001C392B5D2B4120C25
:1008E8009AC2B4EE25E0FE0DBD08E7D2B5D2B41227
:0408F8000C9AC2B4E0
:0108FC0022D9
:050A4D00120A52E4FF53
:100A5200AC07120BF47F781208D6E4FF1208D6AF67
:070A6200041208D6020C90FB
:0D0C4900120BF47F781208D67F400208D607
:030CAC00020C90A7
:100AD300AB05EF24B0FF120A52EB540FFF120A5278
:0A0AE300EBC4540F2410FF020A5266
:100B4B00E4FD120AD3120C49E4FCE4FF1208D60CA4
:060B5B00BC80F7020CACA7
:0B0C6200E4FAAF02120B4B0ABA08F7CD
:010C6D002264
:050006007FAF020A5269
:050CA7007FAE020A52BD
:06067F008D1CAB07AA066A
:10068500C3EB945AEA940040037F00227C007D125C
:10069500AF03AE0212015C8F1DAE02AF037C007D7D
:1006A5001212015CAF05EFC3941040037F0022EFE7
:1006B50025E0251CFFE51DC43354E024B1F582E493
:1006C5003401F583E5822FF582E43583F583E493E0
:0106D500FF25
:0106D6002201
:10096B007F20120A527F01120A527F21120A4D7FF9
:10097B007F120A527F22120A527F03120A527F04FD
:03098B00020A520B
:1004830012096B120C49E4F9E9C39552F51BE49583
:1004930051F51AC364809480400CE51B945AE51A05
:1004A300648094804006E4F519FB8016AE1AAF1BF6
:1004B300E4FD12067F8F19AE1AAF1B7D0112067F72
:1004C300AB07AF191208D6AF031208D609B980B823
:1004D300120CACE552155270021551D3E55294A695
:0E04E300E5516480947F500675510075527F7C
:0104F10022E8
:1002DF00D2B4D2B57F647E00120AED7FAE120A52FD
:1002EF007F20120A527F02120A527FB0120A527FE7
:1002FF00C8120A4D7F10120A527F40120A527F8194
:10030F00120A527F7F120A527FA1120A527FA6123F
:10031F000A527FA8120A527F3F120A527FA4120A72
:10032F00527FD3120A4D7FD5120A527F80120A5282
:10033F007FD9120A527FF1120A527FDA120A527FC4
:10034F0012120A527FDB120A527F40120A527F8D1D
:0E035F00120A527F14120A52120C62020CA7EC
:0C0C6E00EF60047F0180027F008F5322A2
:1008FD00E5536554601885535475510075527FE565
:10090D005360081200061204838003120CA7E553EE
:06091D00600312048322B6
:0B0C85003F065B4F666D7D077F6F0030
:0D066B0008430A0A0A0A0A0A0A0A014B009B
:0B0C7A00EF1FAC0670011E4C70F6224C
:100B61007F087843740AF608DFFCE4F54BD2A4D27F
:050B7100A3D2A2F580F3
:010B7600225C
:100B0500EFC394085011ED940A5004AE0580027E9F
:080B15000A74432FF8A6062222
:06098E008B5B8A5C895DB1
:10099400E4FCAF04AB5BAA5CA95D8C827583001296
:0A09A400011DFD120B050CBC08E854
:0109AE002226
:10055D00EFC39408505EEFB40800504D900570F84D
:10056D0028287302058802058C0205900205940265
:10057D0005980205A00205A80205B0D2A4800ED2EE
:10058D00A48012D2A48016D2A4801AC2A4D2A3D25F
:10059D00A28016C2A4D2A3C2A2800EC2A4C2A3D2AC
:1005AD00A28006C2A4C2A3C2A274432FF8E6900C87
:0505BD008593F580228A
:100B7700E4FDAF0512055D7F647E00120C7AE4F593
:050B8700800DBD08ED2A
:010B8C002246
:0606780001210001220037
:100A1000438920759850758780758DFA758BFAD249
:0F0A2000ACD2AFD28EC299C298E4F521F5222252
:030023000207A42D
:0D07A400C0E0C0D075D000C000C006C00786
:1007B10030981CC298E52104FFC3942040027F00B9
:1007C100EF6522600AAE2174232EF8A6998F21309D
:0407D1009902C2992E
:0B07D500D007D006D000D0D0D0E0321A
:0E0C3B00C2ACC2998F993099FDC299D2AC22F9
:100BA200120104FF600C120C3B740129F9E43AFAB9
:030BB20080EE22B0
:1009AF00E521B522037F0022AF2274232FF8E61230
:1009BF00014A0522E522C394204003E4F5227F017A
:0109CF002205
:060CA100852122C2982209
:0300000002036D8B
:0C036D00787FE4F6D8FD75815E0203B4D1
:10010400BB010689828A83E0225002E722BBFE02F9
:09011400E32289828A83E493222C
:10011D00BB010CE58229F582E5833AF583E0225097
:10012D0006E92582F8E622BBFE06E92582F8E222E1
:0D013D00E58229F582E5833AF583E49322FB
:10014A00BB010689828A83F0225002F722BBFE0194
:02015A00F3228E
:10015C00BC000BBE0029EF8DF084FFADF022E4CC87
:10016C00F875F008EF2FFFEE33FEEC33FCEE9DEC50
:10017C00984005FCEE9DFE0FD5F0E9E4CEFD22ED96
:10018C00F8F5F0EE8420D21CFEADF075F008EF2FE0
:10019C00FFED33FD4007985006D5F0F222C398FDD1
:0501AC000FD5F0EA226E
:100379000205C2E493A3F8E493A34003F68001F2D3
:1003890008DFF48029E493A3F85407240CC8C33385
:10039900C4540F4420C8834004F456800146F6DF54
:1003A900E4800B0102040810204080900621E47EBD
:1003B900019360BCA3FF543F30E509541FFEE49349
:1003C900A360010ECF54C025E060A840B8E493A310
:1003D900FAE493A3F8E493A3C8C582C8CAC583CA3B
:1003E900F0A3C8C582C8CAC583CADFE9DEE780BEF3
:01067E00007B
:00000001FF
